{
  "abi": [
    {
      "inputs": [],
      "stateMutability": "nonpayable",
      "type": "constructor"
    },
    {
      "inputs": [
        {
          "internalType": "uint256",
          "name": "amount",
          "type": "uint256"
        },
        {
          "internalType": "uint256",
          "name": "minAmount",
          "type": "uint256"
        }
      ],
      "name": "DepositAmountTooLow",
      "type": "error"
    },
    {
      "inputs": [
        {
          "internalType": "uint256",
          "name": "amount",
          "type": "uint256"
        },
        {
          "internalType": "uint256",
          "name": "protocolBalance",
          "type": "uint256"
        }
      ],
      "name": "InsufficientProtocolBalanceForBurn",
      "type": "error"
    },
    {
      "inputs": [
        {
          "internalType": "uint256",
          "name": "amount",
          "type": "uint256"
        },
        {
          "internalType": "uint256",
          "name": "senderBalance",
          "type": "uint256"
        },
        {
          "internalType": "uint256",
          "name": "protocolBalance",
          "type": "uint256"
        }
      ],
      "name": "InsufficientUserBalanceForBurn",
      "type": "error"
    },
    {
      "inputs": [
        {
          "internalType": "uint256",
          "name": "sentAmount",
          "type": "uint256"
        },
        {
          "internalType": "uint256",
          "name": "minAmount",
          "type": "uint256"
        }
      ],
      "name": "MintValueTooLow",
      "type": "error"
    },
    {
      "inputs": [
        {
          "internalType": "address",
          "name": "wrongAddress",
          "type": "address"
        }
      ],
      "name": "WrongBurnAddress",
      "type": "error"
    },
    {
      "anonymous": false,
      "inputs": [
        {
          "indexed": true,
          "internalType": "address",
          "name": "owner",
          "type": "address"
        },
        {
          "indexed": true,
          "internalType": "address",
          "name": "spender",
          "type": "address"
        },
        {
          "indexed": false,
          "internalType": "uint256",
          "name": "value",
          "type": "uint256"
        }
      ],
      "name": "Approval",
      "type": "event"
    },
    {
      "anonymous": false,
      "inputs": [
        {
          "indexed": true,
          "internalType": "address",
          "name": "user",
          "type": "address"
        },
        {
          "indexed": false,
          "internalType": "uint256",
          "name": "amount",
          "type": "uint256"
        }
      ],
      "name": "Burned",
      "type": "event"
    },
    {
      "anonymous": false,
      "inputs": [
        {
          "indexed": true,
          "internalType": "address",
          "name": "user",
          "type": "address"
        },
        {
          "indexed": false,
          "internalType": "uint256",
          "name": "amount",
          "type": "uint256"
        }
      ],
      "name": "Minted",
      "type": "event"
    },
    {
      "anonymous": false,
      "inputs": [
        {
          "indexed": true,
          "internalType": "address",
          "name": "previousOwner",
          "type": "address"
        },
        {
          "indexed": true,
          "internalType": "address",
          "name": "newOwner",
          "type": "address"
        }
      ],
      "name": "OwnershipTransferred",
      "type": "event"
    },
    {
      "anonymous": false,
      "inputs": [
        {
          "indexed": true,
          "internalType": "address",
          "name": "from",
          "type": "address"
        },
        {
          "indexed": true,
          "internalType": "address",
          "name": "to",
          "type": "address"
        },
        {
          "indexed": false,
          "internalType": "uint256",
          "name": "value",
          "type": "uint256"
        }
      ],
      "name": "Transfer",
      "type": "event"
    },
    {
      "inputs": [
        {
          "internalType": "address",
          "name": "owner",
          "type": "address"
        },
        {
          "internalType": "address",
          "name": "spender",
          "type": "address"
        }
      ],
      "name": "allowance",
      "outputs": [
        {
          "internalType": "uint256",
          "name": "",
          "type": "uint256"
        }
      ],
      "stateMutability": "view",
      "type": "function"
    },
    {
      "inputs": [
        {
          "internalType": "address",
          "name": "spender",
          "type": "address"
        },
        {
          "internalType": "uint256",
          "name": "amount",
          "type": "uint256"
        }
      ],
      "name": "approve",
      "outputs": [
        {
          "internalType": "bool",
          "name": "",
          "type": "bool"
        }
      ],
      "stateMutability": "nonpayable",
      "type": "function"
    },
    {
      "inputs": [
        {
          "internalType": "address",
          "name": "account",
          "type": "address"
        }
      ],
      "name": "balanceOf",
      "outputs": [
        {
          "internalType": "uint256",
          "name": "",
          "type": "uint256"
        }
      ],
      "stateMutability": "view",
      "type": "function"
    },
    {
      "inputs": [
        {
          "internalType": "address",
          "name": "user",
          "type": "address"
        },
        {
          "internalType": "uint256",
          "name": "amount",
          "type": "uint256"
        }
      ],
      "name": "burn",
      "outputs": [],
      "stateMutability": "nonpayable",
      "type": "function"
    },
    {
      "inputs": [],
      "name": "decimals",
      "outputs": [
        {
          "internalType": "uint8",
          "name": "",
          "type": "uint8"
        }
      ],
      "stateMutability": "view",
      "type": "function"
    },
    {
      "inputs": [
        {
          "internalType": "address",
          "name": "spender",
          "type": "address"
        },
        {
          "internalType": "uint256",
          "name": "subtractedValue",
          "type": "uint256"
        }
      ],
      "name": "decreaseAllowance",
      "outputs": [
        {
          "internalType": "bool",
          "name": "",
          "type": "bool"
        }
      ],
      "stateMutability": "nonpayable",
      "type": "function"
    },
    {
      "inputs": [
        {
          "internalType": "address",
          "name": "spender",
          "type": "address"
        },
        {
          "internalType": "uint256",
          "name": "addedValue",
          "type": "uint256"
        }
      ],
      "name": "increaseAllowance",
      "outputs": [
        {
          "internalType": "bool",
          "name": "",
          "type": "bool"
        }
      ],
      "stateMutability": "nonpayable",
      "type": "function"
    },
    {
      "inputs": [],
      "name": "lara",
      "outputs": [
        {
          "internalType": "address",
          "name": "",
          "type": "address"
        }
      ],
      "stateMutability": "view",
      "type": "function"
    },
    {
      "inputs": [],
      "name": "minDepositAmount",
      "outputs": [
        {
          "internalType": "uint256",
          "name": "",
          "type": "uint256"
        }
      ],
      "stateMutability": "view",
      "type": "function"
    },
    {
      "inputs": [
        {
          "internalType": "address",
          "name": "recipient",
          "type": "address"
        },
        {
          "internalType": "uint256",
          "name": "amount",
          "type": "uint256"
        }
      ],
      "name": "mint",
      "outputs": [],
      "stateMutability": "payable",
      "type": "function"
    },
    {
      "inputs": [],
      "name": "name",
      "outputs": [
        {
          "internalType": "string",
          "name": "",
          "type": "string"
        }
      ],
      "stateMutability": "view",
      "type": "function"
    },
    {
      "inputs": [],
      "name": "owner",
      "outputs": [
        {
          "internalType": "address",
          "name": "",
          "type": "address"
        }
      ],
      "stateMutability": "view",
      "type": "function"
    },
    {
      "inputs": [
        {
          "internalType": "address",
          "name": "",
          "type": "address"
        }
      ],
      "name": "protocolBalances",
      "outputs": [
        {
          "internalType": "uint256",
          "name": "",
          "type": "uint256"
        }
      ],
      "stateMutability": "view",
      "type": "function"
    },
    {
      "inputs": [],
      "name": "renounceOwnership",
      "outputs": [],
      "stateMutability": "nonpayable",
      "type": "function"
    },
    {
      "inputs": [
        {
          "internalType": "address",
          "name": "_lara",
          "type": "address"
        }
      ],
      "name": "setLaraAddress",
      "outputs": [],
      "stateMutability": "nonpayable",
      "type": "function"
    },
    {
      "inputs": [
        {
          "internalType": "uint256",
          "name": "_minDepositAmount",
          "type": "uint256"
        }
      ],
      "name": "setMinDepositAmount",
      "outputs": [],
      "stateMutability": "nonpayable",
      "type": "function"
    },
    {
      "inputs": [],
      "name": "symbol",
      "outputs": [
        {
          "internalType": "string",
          "name": "",
          "type": "string"
        }
      ],
      "stateMutability": "view",
      "type": "function"
    },
    {
      "inputs": [],
      "name": "totalSupply",
      "outputs": [
        {
          "internalType": "uint256",
          "name": "",
          "type": "uint256"
        }
      ],
      "stateMutability": "view",
      "type": "function"
    },
    {
      "inputs": [
        {
          "internalType": "address",
          "name": "to",
          "type": "address"
        },
        {
          "internalType": "uint256",
          "name": "amount",
          "type": "uint256"
        }
      ],
      "name": "transfer",
      "outputs": [
        {
          "internalType": "bool",
          "name": "",
          "type": "bool"
        }
      ],
      "stateMutability": "nonpayable",
      "type": "function"
    },
    {
      "inputs": [
        {
          "internalType": "address",
          "name": "from",
          "type": "address"
        },
        {
          "internalType": "address",
          "name": "to",
          "type": "address"
        },
        {
          "internalType": "uint256",
          "name": "amount",
          "type": "uint256"
        }
      ],
      "name": "transferFrom",
      "outputs": [
        {
          "internalType": "bool",
          "name": "",
          "type": "bool"
        }
      ],
      "stateMutability": "nonpayable",
      "type": "function"
    },
    {
      "inputs": [
        {
          "internalType": "address",
          "name": "newOwner",
          "type": "address"
        }
      ],
      "name": "transferOwnership",
      "outputs": [],
      "stateMutability": "nonpayable",
      "type": "function"
    }
  ],
  "bytecode": {
    "object": "0x6080604052683635c9adc5dea000006006553480156200001e57600080fd5b506040518060400160405280600b81526020016a5374616b6564205441524160a81b8152506040518060400160405280600681526020016573745441524160d01b8152508160039081620000739190620001a0565b506004620000828282620001a0565b5050506200009f62000099620000a560201b60201c565b620000a9565b6200026c565b3390565b600580546001600160a01b038381166001600160a01b0319831681179093556040519116919082907f8be0079c531659141344cd1fd0a4f28419497f9722a3daafe3b4186f6b6457e090600090a35050565b634e487b7160e01b600052604160045260246000fd5b600181811c908216806200012657607f821691505b6020821081036200014757634e487b7160e01b600052602260045260246000fd5b50919050565b601f8211156200019b57600081815260208120601f850160051c81016020861015620001765750805b601f850160051c820191505b81811015620001975782815560010162000182565b5050505b505050565b81516001600160401b03811115620001bc57620001bc620000fb565b620001d481620001cd845462000111565b846200014d565b602080601f8311600181146200020c5760008415620001f35750858301515b600019600386901b1c1916600185901b17855562000197565b600085815260208120601f198616915b828110156200023d578886015182559484019460019091019084016200021c565b50858210156200025c5787850151600019600388901b60f8161c191681555b5050505050600190811b01905550565b611134806200027c6000396000f3fe6080604052600436106101295760003560e01c8063645006ca116100ab57806395d89b411161006f57806395d89b411461033d5780639dc29fac14610352578063a457c2d714610372578063a9059cbb14610392578063dd62ed3e146103b2578063f2fde38b146103d257600080fd5b8063645006ca1461029157806370a08231146102a7578063715018a6146102dd5780638cda1e32146102f25780638da5cb5b1461031f57600080fd5b806323b872dd116100f257806323b872dd146102025780632a80cda314610222578063313ce56714610242578063395093511461025e57806340c10f191461027e57600080fd5b8062f92d971461012e57806306fdde031461015057806307f71eb21461017b578063095ea7b3146101b357806318160ddd146101e3575b600080fd5b34801561013a57600080fd5b5061014e610149366004610f66565b6103f2565b005b34801561015c57600080fd5b5061016561041c565b6040516101729190610f88565b60405180910390f35b34801561018757600080fd5b5060075461019b906001600160a01b031681565b6040516001600160a01b039091168152602001610172565b3480156101bf57600080fd5b506101d36101ce366004610fd6565b6104ae565b6040519015158152602001610172565b3480156101ef57600080fd5b506002545b604051908152602001610172565b34801561020e57600080fd5b506101d361021d366004611000565b6104c8565b34801561022e57600080fd5b5061014e61023d36600461103c565b6104ec565b34801561024e57600080fd5b5060405160128152602001610172565b34801561026a57600080fd5b506101d3610279366004610fd6565b6104f9565b61014e61028c366004610fd6565b61051b565b34801561029d57600080fd5b506101f460065481565b3480156102b357600080fd5b506101f46102c2366004610f66565b6001600160a01b031660009081526020819052604090205490565b3480156102e957600080fd5b5061014e610628565b3480156102fe57600080fd5b506101f461030d366004610f66565b60086020526000908152604090205481565b34801561032b57600080fd5b506005546001600160a01b031661019b565b34801561034957600080fd5b5061016561063c565b34801561035e57600080fd5b5061014e61036d366004610fd6565b61064b565b34801561037e57600080fd5b506101d361038d366004610fd6565b610845565b34801561039e57600080fd5b506101d36103ad366004610fd6565b6108c0565b3480156103be57600080fd5b506101f46103cd366004611055565b6108ce565b3480156103de57600080fd5b5061014e6103ed366004610f66565b6108f9565b6103fa610972565b600780546001600160a01b0319166001600160a01b0392909216919091179055565b60606003805461042b90611088565b80601f016020809104026020016040519081016040528092919081815260200182805461045790611088565b80156104a45780601f10610479576101008083540402835291602001916104a4565b820191906000526020600020905b81548152906001019060200180831161048757829003601f168201915b5050505050905090565b6000336104bc8185856109cc565b60019150505b92915050565b6000336104d6858285610af1565b6104e1858585610b6b565b506001949350505050565b6104f4610972565b600655565b6000336104bc81858561050c83836108ce565b61051691906110d8565b6109cc565b600654811015610555576006546040516396a6983160e01b815261054c918391600401918252602082015260400190565b60405180910390fd5b6007546001600160a01b031633036105a4576001600160a01b0382166000908152600860205260408120805483929061058f9084906110d8565b9091555061059f90508282610d0f565b6105e1565b803410156105d5576006546040516001621d91d560e01b03198152346004820152602481019190915260440161054c565b50346105e18282610d0f565b816001600160a01b03167f30385c845b448a36257a6a1716e6ad2e1bc2cbe333cde1e69fe849ad6511adfe8260405161061c91815260200190565b60405180910390a25050565b610630610972565b61063a6000610dce565b565b60606004805461042b90611088565b6001600160a01b038216331480159061066f57506007546001600160a01b03163314155b1561069857604051638bd40c1560e01b81526001600160a01b038316600482015260240161054c565b336001600160a01b03831603610774576001600160a01b038216600090815260086020908152604080832054918390529091205482916106d7916110eb565b101561074157806106fd836001600160a01b031660009081526020819052604090205490565b6001600160a01b03841660009081526008602052604090819020549051637486783160e11b815260048101939093526024830191909152604482015260640161054c565b604051339082156108fc029083906000818181858888f1935050505015801561076e573d6000803e3d6000fd5b50610800565b6001600160a01b0382166000908152600860205260409020548111156107d2576001600160a01b03821660009081526008602052604090819020549051635d50b23f60e01b815261054c918391600401918252602082015260400190565b6001600160a01b038216600090815260086020526040812080548392906107fa9084906110eb565b90915550505b61080a8282610e20565b816001600160a01b03167f696de425f79f4a40bc6d2122ca50507f0efbeabbff86a84871b7196ab8ea8df78260405161061c91815260200190565b6000338161085382866108ce565b9050838110156108b35760405162461bcd60e51b815260206004820152602560248201527f45524332303a2064656372656173656420616c6c6f77616e63652062656c6f77604482015264207a65726f60d81b606482015260840161054c565b6104e182868684036109cc565b6000336104bc818585610b6b565b6001600160a01b03918216600090815260016020908152604080832093909416825291909152205490565b610901610972565b6001600160a01b0381166109665760405162461bcd60e51b815260206004820152602660248201527f4f776e61626c653a206e6577206f776e657220697320746865207a65726f206160448201526564647265737360d01b606482015260840161054c565b61096f81610dce565b50565b6005546001600160a01b0316331461063a5760405162461bcd60e51b815260206004820181905260248201527f4f776e61626c653a2063616c6c6572206973206e6f7420746865206f776e6572604482015260640161054c565b6001600160a01b038316610a2e5760405162461bcd60e51b8152602060048201526024808201527f45524332303a20617070726f76652066726f6d20746865207a65726f206164646044820152637265737360e01b606482015260840161054c565b6001600160a01b038216610a8f5760405162461bcd60e51b815260206004820152602260248201527f45524332303a20617070726f766520746f20746865207a65726f206164647265604482015261737360f01b606482015260840161054c565b6001600160a01b0383811660008181526001602090815260408083209487168084529482529182902085905590518481527f8c5be1e5ebec7d5bd14f71427d1e84f3dd0314c0f7b2291e5b200ac8c7c3b92591015b60405180910390a3505050565b6000610afd84846108ce565b90506000198114610b655781811015610b585760405162461bcd60e51b815260206004820152601d60248201527f45524332303a20696e73756666696369656e7420616c6c6f77616e6365000000604482015260640161054c565b610b6584848484036109cc565b50505050565b6001600160a01b038316610bcf5760405162461bcd60e51b815260206004820152602560248201527f45524332303a207472616e736665722066726f6d20746865207a65726f206164604482015264647265737360d81b606482015260840161054c565b6001600160a01b038216610c315760405162461bcd60e51b815260206004820152602360248201527f45524332303a207472616e7366657220746f20746865207a65726f206164647260448201526265737360e81b606482015260840161054c565b6001600160a01b03831660009081526020819052604090205481811015610ca95760405162461bcd60e51b815260206004820152602660248201527f45524332303a207472616e7366657220616d6f756e7420657863656564732062604482015265616c616e636560d01b606482015260840161054c565b6001600160a01b03848116600081815260208181526040808320878703905593871680835291849020805487019055925185815290927fddf252ad1be2c89b69c2b068fc378daa952ba7f163c4a11628f55a4df523b3ef910160405180910390a3610b65565b6001600160a01b038216610d655760405162461bcd60e51b815260206004820152601f60248201527f45524332303a206d696e7420746f20746865207a65726f206164647265737300604482015260640161054c565b8060026000828254610d7791906110d8565b90915550506001600160a01b038216600081815260208181526040808320805486019055518481527fddf252ad1be2c89b69c2b068fc378daa952ba7f163c4a11628f55a4df523b3ef910160405180910390a35050565b600580546001600160a01b038381166001600160a01b0319831681179093556040519116919082907f8be0079c531659141344cd1fd0a4f28419497f9722a3daafe3b4186f6b6457e090600090a35050565b6001600160a01b038216610e805760405162461bcd60e51b815260206004820152602160248201527f45524332303a206275726e2066726f6d20746865207a65726f206164647265736044820152607360f81b606482015260840161054c565b6001600160a01b03821660009081526020819052604090205481811015610ef45760405162461bcd60e51b815260206004820152602260248201527f45524332303a206275726e20616d6f756e7420657863656564732062616c616e604482015261636560f01b606482015260840161054c565b6001600160a01b0383166000818152602081815260408083208686039055600280548790039055518581529192917fddf252ad1be2c89b69c2b068fc378daa952ba7f163c4a11628f55a4df523b3ef9101610ae4565b80356001600160a01b0381168114610f6157600080fd5b919050565b600060208284031215610f7857600080fd5b610f8182610f4a565b9392505050565b600060208083528351808285015260005b81811015610fb557858101830151858201604001528201610f99565b506000604082860101526040601f19601f8301168501019250505092915050565b60008060408385031215610fe957600080fd5b610ff283610f4a565b946020939093013593505050565b60008060006060848603121561101557600080fd5b61101e84610f4a565b925061102c60208501610f4a565b9150604084013590509250925092565b60006020828403121561104e57600080fd5b5035919050565b6000806040838503121561106857600080fd5b61107183610f4a565b915061107f60208401610f4a565b90509250929050565b600181811c9082168061109c57607f821691505b6020821081036110bc57634e487b7160e01b600052602260045260246000fd5b50919050565b634e487b7160e01b600052601160045260246000fd5b808201808211156104c2576104c26110c2565b818103818111156104c2576104c26110c256fea2646970667358221220dd7ce3d07cfaef7df39c65e24ba8219d3dc9de66f5e5f90047d47a723d141aa864736f6c63430008110033",
    "linkReferences": {}
  },
  "methodIdentifiers": {
    "allowance(address,address)": "dd62ed3e",
    "approve(address,uint256)": "095ea7b3",
    "balanceOf(address)": "70a08231",
    "burn(address,uint256)": "9dc29fac",
    "decimals()": "313ce567",
    "decreaseAllowance(address,uint256)": "a457c2d7",
    "increaseAllowance(address,uint256)": "39509351",
    "lara()": "07f71eb2",
    "minDepositAmount()": "645006ca",
    "mint(address,uint256)": "40c10f19",
    "name()": "06fdde03",
    "owner()": "8da5cb5b",
    "protocolBalances(address)": "8cda1e32",
    "renounceOwnership()": "715018a6",
    "setLaraAddress(address)": "00f92d97",
    "setMinDepositAmount(uint256)": "2a80cda3",
    "symbol()": "95d89b41",
    "totalSupply()": "18160ddd",
    "transfer(address,uint256)": "a9059cbb",
    "transferFrom(address,address,uint256)": "23b872dd",
    "transferOwnership(address)": "f2fde38b"
  },
  "id": 11
}