{
  "abi": [
    {
      "inputs": [
        {
          "internalType": "address",
          "name": "dataFeed",
          "type": "address"
        }
      ],
      "stateMutability": "nonpayable",
      "type": "constructor"
    },
    {
      "anonymous": false,
      "inputs": [
        {
          "indexed": true,
          "internalType": "address",
          "name": "node",
          "type": "address"
        },
        {
          "indexed": false,
          "internalType": "uint64",
          "name": "timestamp",
          "type": "uint64"
        },
        {
          "indexed": false,
          "internalType": "uint256",
          "name": "pbftCount",
          "type": "uint256"
        }
      ],
      "name": "NodeDataUpdated",
      "type": "event"
    },
    {
      "inputs": [],
      "name": "getDataFeedAddress",
      "outputs": [
        {
          "internalType": "address",
          "name": "",
          "type": "address"
        }
      ],
      "stateMutability": "view",
      "type": "function"
    },
    {
      "inputs": [
        {
          "internalType": "uint64",
          "name": "timestamp",
          "type": "uint64"
        }
      ],
      "name": "getNodeStatsFrom",
      "outputs": [
        {
          "components": [
            {
              "internalType": "uint64",
              "name": "dagsCount",
              "type": "uint64"
            },
            {
              "internalType": "uint64",
              "name": "lastDagTimestamp",
              "type": "uint64"
            },
            {
              "internalType": "uint64",
              "name": "lastPbftTimestamp",
              "type": "uint64"
            },
            {
              "internalType": "uint64",
              "name": "lastTransactionTimestamp",
              "type": "uint64"
            },
            {
              "internalType": "uint64",
              "name": "pbftCount",
              "type": "uint64"
            },
            {
              "internalType": "uint64",
              "name": "transactionsCount",
              "type": "uint64"
            }
          ],
          "internalType": "struct INodeContinuityOracle.NodeStats",
          "name": "",
          "type": "tuple"
        }
      ],
      "stateMutability": "view",
      "type": "function"
    },
    {
      "inputs": [
        {
          "internalType": "address",
          "name": "node",
          "type": "address"
        }
      ],
      "name": "getNodeUpdateTimestamps",
      "outputs": [
        {
          "internalType": "uint64[]",
          "name": "timestamps",
          "type": "uint64[]"
        }
      ],
      "stateMutability": "view",
      "type": "function"
    },
    {
      "inputs": [
        {
          "internalType": "uint64",
          "name": "",
          "type": "uint64"
        }
      ],
      "name": "nodeStats",
      "outputs": [
        {
          "internalType": "uint64",
          "name": "dagsCount",
          "type": "uint64"
        },
        {
          "internalType": "uint64",
          "name": "lastDagTimestamp",
          "type": "uint64"
        },
        {
          "internalType": "uint64",
          "name": "lastPbftTimestamp",
          "type": "uint64"
        },
        {
          "internalType": "uint64",
          "name": "lastTransactionTimestamp",
          "type": "uint64"
        },
        {
          "internalType": "uint64",
          "name": "pbftCount",
          "type": "uint64"
        },
        {
          "internalType": "uint64",
          "name": "transactionsCount",
          "type": "uint64"
        }
      ],
      "stateMutability": "view",
      "type": "function"
    },
    {
      "inputs": [
        {
          "internalType": "address",
          "name": "",
          "type": "address"
        },
        {
          "internalType": "uint256",
          "name": "",
          "type": "uint256"
        }
      ],
      "name": "nodeStatsUpdateTimestamps",
      "outputs": [
        {
          "internalType": "uint64",
          "name": "",
          "type": "uint64"
        }
      ],
      "stateMutability": "view",
      "type": "function"
    },
    {
      "inputs": [
        {
          "internalType": "address",
          "name": "node",
          "type": "address"
        },
        {
          "internalType": "uint64",
          "name": "timestamp",
          "type": "uint64"
        },
        {
          "components": [
            {
              "internalType": "uint64",
              "name": "dagsCount",
              "type": "uint64"
            },
            {
              "internalType": "uint64",
              "name": "lastDagTimestamp",
              "type": "uint64"
            },
            {
              "internalType": "uint64",
              "name": "lastPbftTimestamp",
              "type": "uint64"
            },
            {
              "internalType": "uint64",
              "name": "lastTransactionTimestamp",
              "type": "uint64"
            },
            {
              "internalType": "uint64",
              "name": "pbftCount",
              "type": "uint64"
            },
            {
              "internalType": "uint64",
              "name": "transactionsCount",
              "type": "uint64"
            }
          ],
          "internalType": "struct INodeContinuityOracle.NodeStats",
          "name": "data",
          "type": "tuple"
        }
      ],
      "name": "updateNodeStats",
      "outputs": [],
      "stateMutability": "nonpayable",
      "type": "function"
    }
  ],
  "bytecode": {
    "object": "0x60a060405234801561001057600080fd5b506040516108aa3803806108aa83398101604081905261002f91610040565b6001600160a01b0316608052610070565b60006020828403121561005257600080fd5b81516001600160a01b038116811461006957600080fd5b9392505050565b6080516108186100926000396000818161016101526103a901526108186000f3fe608060405234801561001057600080fd5b50600436106100625760003560e01c806340e7c1171461006757806342564141146100975780634f39156b146100b7578063a50d185014610154578063e8578b361461018b578063fc4ec1c2146101a0575b600080fd5b61007a610075366004610631565b6102b6565b6040516001600160401b0390911681526020015b60405180910390f35b6100aa6100a536600461065b565b610302565b60405161008e919061067d565b6101126100c53660046106e1565b600160208190526000918252604090912080549101546001600160401b0380831692600160401b808204831693600160801b8304841693600160c01b909304831692818116929091041686565b604080516001600160401b03978816815295871660208701529386169385019390935290841660608401528316608083015290911660a082015260c00161008e565b6040516001600160a01b037f000000000000000000000000000000000000000000000000000000000000000016815260200161008e565b61019e6101993660046106fc565b61039e565b005b6102556101ae3660046106e1565b6040805160c081018252600080825260208201819052918101829052606081018290526080810182905260a0810191909152506001600160401b03908116600090815260016020818152604092839020835160c08101855281548087168252600160401b808204881694830194909452600160801b8104871695820195909552600160c01b909404851660608501529091015480841660808401520490911660a082015290565b60405161008e9190600060c0820190506001600160401b038084511683528060208501511660208401528060408501511660408401528060608501511660608401528060808501511660808401528060a08501511660a08401525092915050565b600060205281600052604060002081815481106102d257600080fd5b9060005260206000209060049182820401919006600802915091509054906101000a90046001600160401b031681565b6001600160a01b0381166000908152602081815260409182902080548351818402810184019094528084526060939283018282801561039257602002820191906000526020600020906000905b82829054906101000a90046001600160401b03166001600160401b03168152602001906008019060208260070104928301926001038202915080841161034f5790505b50505050509050919050565b336001600160a01b037f0000000000000000000000000000000000000000000000000000000000000000161461042a5760405162461bcd60e51b815260206004820152602660248201527f4170794f7261636c653a2063616c6c6572206973206e6f74207468652064617460448201526518481999595960d21b60648201526084015b60405180910390fd5b6001600160401b03808316600090815260016020526040902054600160401b900416158061047757506001600160401b03808316600090815260016020526040902054600160401b900416155b6104db5760405162461bcd60e51b815260206004820152602f60248201527f494e6f6465436f6e74696e756974794f7261636c653a2074696d657374616d7060448201526e20616c72656164792065786973747360881b6064820152608401610421565b6001600160401b03828116600081815260016020818152604080842087518154898501518a85015160608c0151938b166fffffffffffffffffffffffffffffffff1993841617600160401b928c168302176fffffffffffffffffffffffffffffffff16600160801b918c16919091026001600160c01b031617600160c01b938b169390930292909217835560808a018051938701805460a08d0151958c16931692909217938a16909202929092179091556001600160a01b038a16808652858452828620805495860181558652948390206004850401805460086003909616959095026101000a80890219909516948702949094179093559151825194855290941693830193909352917f5ca455ba0dd919bfb0153648c9b44a706c8f7640acdd22269337eb84938473ab910160405180910390a2505050565b80356001600160a01b038116811461062c57600080fd5b919050565b6000806040838503121561064457600080fd5b61064d83610615565b946020939093013593505050565b60006020828403121561066d57600080fd5b61067682610615565b9392505050565b6020808252825182820181905260009190848201906040850190845b818110156106be5783516001600160401b031683529284019291840191600101610699565b50909695505050505050565b80356001600160401b038116811461062c57600080fd5b6000602082840312156106f357600080fd5b610676826106ca565b600080600083850361010081121561071357600080fd5b61071c85610615565b935061072a602086016106ca565b925060c0603f198201121561073e57600080fd5b5060405160c081018181106001600160401b038211171561076f57634e487b7160e01b600052604160045260246000fd5b8060405250610780604086016106ca565b815261078e606086016106ca565b602082015261079f608086016106ca565b60408201526107b060a086016106ca565b60608201526107c160c086016106ca565b60808201526107d260e086016106ca565b60a082015280915050925092509256fea264697066735822122069f6608905c4487b4f41e835ddb00423e9e90ab0ca1eba26ae183eca7263f6a664736f6c63430008110033",
    "linkReferences": {}
  },
  "methodIdentifiers": {
    "getDataFeedAddress()": "a50d1850",
    "getNodeStatsFrom(uint64)": "fc4ec1c2",
    "getNodeUpdateTimestamps(address)": "42564141",
    "nodeStats(uint64)": "4f39156b",
    "nodeStatsUpdateTimestamps(address,uint256)": "40e7c117",
    "updateNodeStats(address,uint64,(uint64,uint64,uint64,uint64,uint64,uint64))": "e8578b36"
  },
  "id": 3
}