{
  "abi": [
    {
      "inputs": [
        {
          "internalType": "address[]",
          "name": "_internalValidators",
          "type": "address[]"
        }
      ],
      "stateMutability": "payable",
      "type": "constructor"
    },
    {
      "anonymous": false,
      "inputs": [
        {
          "indexed": true,
          "internalType": "address",
          "name": "account",
          "type": "address"
        },
        {
          "indexed": true,
          "internalType": "address",
          "name": "validator",
          "type": "address"
        }
      ],
      "name": "CommissionRewardsClaimed",
      "type": "event"
    },
    {
      "anonymous": false,
      "inputs": [
        {
          "indexed": true,
          "internalType": "address",
          "name": "validator",
          "type": "address"
        },
        {
          "indexed": false,
          "internalType": "uint16",
          "name": "comission",
          "type": "uint16"
        }
      ],
      "name": "CommissionSet",
      "type": "event"
    },
    {
      "anonymous": false,
      "inputs": [
        {
          "indexed": true,
          "internalType": "address",
          "name": "delegator",
          "type": "address"
        },
        {
          "indexed": true,
          "internalType": "address",
          "name": "validator",
          "type": "address"
        },
        {
          "indexed": false,
          "internalType": "uint256",
          "name": "amount",
          "type": "uint256"
        }
      ],
      "name": "Delegated",
      "type": "event"
    },
    {
      "anonymous": false,
      "inputs": [
        {
          "indexed": true,
          "internalType": "address",
          "name": "delegator",
          "type": "address"
        },
        {
          "indexed": true,
          "internalType": "address",
          "name": "from",
          "type": "address"
        },
        {
          "indexed": true,
          "internalType": "address",
          "name": "to",
          "type": "address"
        },
        {
          "indexed": false,
          "internalType": "uint256",
          "name": "amount",
          "type": "uint256"
        }
      ],
      "name": "Redelegated",
      "type": "event"
    },
    {
      "anonymous": false,
      "inputs": [
        {
          "indexed": true,
          "internalType": "address",
          "name": "account",
          "type": "address"
        },
        {
          "indexed": true,
          "internalType": "address",
          "name": "validator",
          "type": "address"
        }
      ],
      "name": "RewardsClaimed",
      "type": "event"
    },
    {
      "anonymous": false,
      "inputs": [
        {
          "indexed": true,
          "internalType": "address",
          "name": "delegator",
          "type": "address"
        },
        {
          "indexed": true,
          "internalType": "address",
          "name": "validator",
          "type": "address"
        },
        {
          "indexed": false,
          "internalType": "uint256",
          "name": "amount",
          "type": "uint256"
        }
      ],
      "name": "UndelegateCanceled",
      "type": "event"
    },
    {
      "anonymous": false,
      "inputs": [
        {
          "indexed": true,
          "internalType": "address",
          "name": "delegator",
          "type": "address"
        },
        {
          "indexed": true,
          "internalType": "address",
          "name": "validator",
          "type": "address"
        },
        {
          "indexed": false,
          "internalType": "uint256",
          "name": "amount",
          "type": "uint256"
        }
      ],
      "name": "UndelegateConfirmed",
      "type": "event"
    },
    {
      "anonymous": false,
      "inputs": [
        {
          "indexed": true,
          "internalType": "address",
          "name": "delegator",
          "type": "address"
        },
        {
          "indexed": true,
          "internalType": "address",
          "name": "validator",
          "type": "address"
        },
        {
          "indexed": false,
          "internalType": "uint256",
          "name": "amount",
          "type": "uint256"
        }
      ],
      "name": "Undelegated",
      "type": "event"
    },
    {
      "anonymous": false,
      "inputs": [
        {
          "indexed": true,
          "internalType": "address",
          "name": "validator",
          "type": "address"
        }
      ],
      "name": "ValidatorInfoSet",
      "type": "event"
    },
    {
      "anonymous": false,
      "inputs": [
        {
          "indexed": true,
          "internalType": "address",
          "name": "validator",
          "type": "address"
        }
      ],
      "name": "ValidatorRegistered",
      "type": "event"
    },
    {
      "inputs": [
        {
          "internalType": "address",
          "name": "validator",
          "type": "address"
        }
      ],
      "name": "delegate",
      "outputs": [],
      "stateMutability": "payable",
      "type": "function"
    },
    {
      "inputs": [
        {
          "internalType": "address",
          "name": "validator",
          "type": "address"
        }
      ],
      "name": "getValidator",
      "outputs": [
        {
          "components": [
            {
              "internalType": "uint256",
              "name": "total_stake",
              "type": "uint256"
            },
            {
              "internalType": "uint256",
              "name": "commission_reward",
              "type": "uint256"
            },
            {
              "internalType": "uint16",
              "name": "commission",
              "type": "uint16"
            },
            {
              "internalType": "uint64",
              "name": "last_commission_change",
              "type": "uint64"
            },
            {
              "internalType": "address",
              "name": "owner",
              "type": "address"
            },
            {
              "internalType": "string",
              "name": "description",
              "type": "string"
            },
            {
              "internalType": "string",
              "name": "endpoint",
              "type": "string"
            }
          ],
          "internalType": "struct MockIDPOS.ValidatorBasicInfo",
          "name": "",
          "type": "tuple"
        }
      ],
      "stateMutability": "view",
      "type": "function"
    },
    {
      "inputs": [
        {
          "internalType": "uint32",
          "name": "batch",
          "type": "uint32"
        }
      ],
      "name": "getValidators",
      "outputs": [
        {
          "components": [
            {
              "internalType": "address",
              "name": "account",
              "type": "address"
            },
            {
              "components": [
                {
                  "internalType": "uint256",
                  "name": "total_stake",
                  "type": "uint256"
                },
                {
                  "internalType": "uint256",
                  "name": "commission_reward",
                  "type": "uint256"
                },
                {
                  "internalType": "uint16",
                  "name": "commission",
                  "type": "uint16"
                },
                {
                  "internalType": "uint64",
                  "name": "last_commission_change",
                  "type": "uint64"
                },
                {
                  "internalType": "address",
                  "name": "owner",
                  "type": "address"
                },
                {
                  "internalType": "string",
                  "name": "description",
                  "type": "string"
                },
                {
                  "internalType": "string",
                  "name": "endpoint",
                  "type": "string"
                }
              ],
              "internalType": "struct MockIDPOS.ValidatorBasicInfo",
              "name": "info",
              "type": "tuple"
            }
          ],
          "internalType": "struct MockIDPOS.ValidatorData[]",
          "name": "validatorsOut",
          "type": "tuple[]"
        },
        {
          "internalType": "bool",
          "name": "end",
          "type": "bool"
        }
      ],
      "stateMutability": "view",
      "type": "function"
    },
    {
      "inputs": [
        {
          "internalType": "address",
          "name": "owner",
          "type": "address"
        },
        {
          "internalType": "uint32",
          "name": "batch",
          "type": "uint32"
        }
      ],
      "name": "getValidatorsFor",
      "outputs": [
        {
          "components": [
            {
              "internalType": "address",
              "name": "account",
              "type": "address"
            },
            {
              "components": [
                {
                  "internalType": "uint256",
                  "name": "total_stake",
                  "type": "uint256"
                },
                {
                  "internalType": "uint256",
                  "name": "commission_reward",
                  "type": "uint256"
                },
                {
                  "internalType": "uint16",
                  "name": "commission",
                  "type": "uint16"
                },
                {
                  "internalType": "uint64",
                  "name": "last_commission_change",
                  "type": "uint64"
                },
                {
                  "internalType": "address",
                  "name": "owner",
                  "type": "address"
                },
                {
                  "internalType": "string",
                  "name": "description",
                  "type": "string"
                },
                {
                  "internalType": "string",
                  "name": "endpoint",
                  "type": "string"
                }
              ],
              "internalType": "struct MockIDPOS.ValidatorBasicInfo",
              "name": "info",
              "type": "tuple"
            }
          ],
          "internalType": "struct MockIDPOS.ValidatorData[]",
          "name": "validatorsOut",
          "type": "tuple[]"
        },
        {
          "internalType": "bool",
          "name": "end",
          "type": "bool"
        }
      ],
      "stateMutability": "view",
      "type": "function"
    },
    {
      "inputs": [
        {
          "internalType": "address",
          "name": "validator",
          "type": "address"
        }
      ],
      "name": "isValidatorRegistered",
      "outputs": [
        {
          "internalType": "bool",
          "name": "",
          "type": "bool"
        }
      ],
      "stateMutability": "view",
      "type": "function"
    },
    {
      "inputs": [
        {
          "internalType": "address",
          "name": "validator",
          "type": "address"
        },
        {
          "internalType": "bytes",
          "name": "proof",
          "type": "bytes"
        },
        {
          "internalType": "bytes",
          "name": "vrf_key",
          "type": "bytes"
        },
        {
          "internalType": "uint16",
          "name": "commission",
          "type": "uint16"
        },
        {
          "internalType": "string",
          "name": "description",
          "type": "string"
        },
        {
          "internalType": "string",
          "name": "endpoint",
          "type": "string"
        }
      ],
      "name": "registerValidator",
      "outputs": [],
      "stateMutability": "payable",
      "type": "function"
    },
    {
      "inputs": [
        {
          "internalType": "address",
          "name": "validator",
          "type": "address"
        },
        {
          "internalType": "uint256",
          "name": "amount",
          "type": "uint256"
        }
      ],
      "name": "undelegate",
      "outputs": [],
      "stateMutability": "nonpayable",
      "type": "function"
    },
    {
      "inputs": [
        {
          "internalType": "address",
          "name": "",
          "type": "address"
        }
      ],
      "name": "validators",
      "outputs": [
        {
          "internalType": "address",
          "name": "account",
          "type": "address"
        },
        {
          "components": [
            {
              "internalType": "uint256",
              "name": "total_stake",
              "type": "uint256"
            },
            {
              "internalType": "uint256",
              "name": "commission_reward",
              "type": "uint256"
            },
            {
              "internalType": "uint16",
              "name": "commission",
              "type": "uint16"
            },
            {
              "internalType": "uint64",
              "name": "last_commission_change",
              "type": "uint64"
            },
            {
              "internalType": "address",
              "name": "owner",
              "type": "address"
            },
            {
              "internalType": "string",
              "name": "description",
              "type": "string"
            },
            {
              "internalType": "string",
              "name": "endpoint",
              "type": "string"
            }
          ],
          "internalType": "struct MockIDPOS.ValidatorBasicInfo",
          "name": "info",
          "type": "tuple"
        }
      ],
      "stateMutability": "view",
      "type": "function"
    }
  ],
  "bytecode": {
    "object": "0x608060405260405162001fe338038062001fe38339810160408190526200002691620004aa565b60005b8151811015620003c35760006040518060e001604052808451346200004f919062000592565b815260200160008152602001606461ffff168152602001436001600160401b03168152602001336001600160a01b031681526020016040518060400160405280601281526020017129b0b6b83632903232b9b1b934b83a34b7b760711b81525081526020016040518060400160405280601581526020017f68747470733a2f2f656e64706f696e742e736f6d650000000000000000000000815250815250905060006040518060400160405280858581518110620001115762000111620005b5565b60200260200101516001600160a01b0316815260200183815250905080600080868681518110620001465762000146620005b5565b6020908102919091018101516001600160a01b039081168352828201939093526040918201600020845181549085166001600160a01b03199091161781558482015180516001830190815592810151600283015592830151600382018054606086015160808701519097166a010000000000000000000002600160501b600160f01b03196001600160401b0390981662010000026001600160501b031990921661ffff9094169390931717959095161790935560a082015160048401906200020f90826200065a565b5060c082015160048201906200022690826200065a565b5050600180548082018255600091909152845160069091027fb10e2d527612073b26eecdfd717e6a320cf44b4afac2b0732d9fcbe2b7fa0cf6810180546001600160a01b039384166001600160a01b031990911617815560208088015180517fb10e2d527612073b26eecdfd717e6a320cf44b4afac2b0732d9fcbe2b7fa0cf78501908155918101517fb10e2d527612073b26eecdfd717e6a320cf44b4afac2b0732d9fcbe2b7fa0cf885015560408101517fb10e2d527612073b26eecdfd717e6a320cf44b4afac2b0732d9fcbe2b7fa0cf985018054606084015160808501519098166a010000000000000000000002600160501b600160f01b03196001600160401b0390991662010000026001600160501b031990921661ffff9094169390931717969096161790945560a08401518897509195509293507fb10e2d527612073b26eecdfd717e6a320cf44b4afac2b0732d9fcbe2b7fa0cfa909101906200039190826200065a565b5060c08201516004820190620003a890826200065a565b5050505050505080620003bb9062000726565b905062000029565b5060006001600160a01b03166000808360018551620003e3919062000742565b81518110620003f657620003f6620005b5565b6020908102919091018101516001600160a01b03908116835290820192909252604001600020541603620004705760405162461bcd60e51b815260206004820152601c60248201527f4661696c656420746f20736574206f776e2076616c696461746f727300000000604482015260640160405180910390fd5b506200075e565b634e487b7160e01b600052604160045260246000fd5b80516001600160a01b0381168114620004a557600080fd5b919050565b60006020808385031215620004be57600080fd5b82516001600160401b0380821115620004d657600080fd5b818501915085601f830112620004eb57600080fd5b81518181111562000500576200050062000477565b8060051b604051601f19603f8301168101818110858211171562000528576200052862000477565b6040529182528482019250838101850191888311156200054757600080fd5b938501935b82851015620005705762000560856200048d565b845293850193928501926200054c565b98975050505050505050565b634e487b7160e01b600052601160045260246000fd5b600082620005b057634e487b7160e01b600052601260045260246000fd5b500490565b634e487b7160e01b600052603260045260246000fd5b600181811c90821680620005e057607f821691505b6020821081036200060157634e487b7160e01b600052602260045260246000fd5b50919050565b601f8211156200065557600081815260208120601f850160051c81016020861015620006305750805b601f850160051c820191505b8181101562000651578281556001016200063c565b5050505b505050565b81516001600160401b0381111562000676576200067662000477565b6200068e81620006878454620005cb565b8462000607565b602080601f831160018114620006c65760008415620006ad5750858301515b600019600386901b1c1916600185901b17855562000651565b600085815260208120601f198616915b82811015620006f757888601518255948401946001909101908401620006d6565b5085821015620007165787850151600019600388901b60f8161c191681555b5050505050600190811b01905550565b6000600182016200073b576200073b6200057c565b5060010190565b818103818111156200075857620007586200057c565b92915050565b611875806200076e6000396000f3fe60806040526004361061007b5760003560e01c8063724ac6b01161004e578063724ac6b014610119578063d04a68c714610139578063d6fdc12714610184578063fa52c7d81461019757600080fd5b80631904bb2e1461008057806319d8024f146100b65780634d99dd16146100e45780635c19a95c14610106575b600080fd5b34801561008c57600080fd5b506100a061009b3660046112b4565b6101c5565b6040516100ad919061139a565b60405180910390f35b3480156100c257600080fd5b506100d66100d13660046113c1565b61036d565b6040516100ad9291906113dc565b3480156100f057600080fd5b506101046100ff366004611463565b610631565b005b6101046101143660046112b4565b610745565b34801561012557600080fd5b506100d661013436600461148d565b610855565b34801561014557600080fd5b506101746101543660046112b4565b6001600160a01b0390811660009081526020819052604090205416151590565b60405190151581526020016100ad565b6101046101923660046115b5565b610b67565b3480156101a357600080fd5b506101b76101b23660046112b4565b611026565b6040516100ad92919061168e565b6101cd6111c7565b6001600160a01b0380831660009081526020818152604091829020825160e0810184526001820180548252600283015493820193909352600382015461ffff8116948201949094526001600160401b03620100008504166060820152600160501b90930490931660808301526004909201805491929160a084019190610252906116ba565b80601f016020809104026020016040519081016040528092919081815260200182805461027e906116ba565b80156102cb5780601f106102a0576101008083540402835291602001916102cb565b820191906000526020600020905b8154815290600101906020018083116102ae57829003601f168201915b505050505081526020016004820180546102e4906116ba565b80601f0160208091040260200160405190810160405280929190818152602001828054610310906116ba565b801561035d5780601f106103325761010080835404028352916020019161035d565b820191906000526020600020905b81548152906001019060200180831161034057829003601f168201915b5050505050815250509050919050565b606060008263ffffffff166000036103995760015460641115610394576001549250610399565b606492505b60008363ffffffff166001600160401b038111156103b9576103b96114c0565b6040519080825280602002602001820160405280156103f257816020015b6103df61121a565b8152602001906001900390816103d75790505b50905060005b8463ffffffff168160ff16101561062657604051806040016040528060018360ff168154811061042a5761042a6116f4565b6000918252602091829020600690910201546001600160a01b0316825260018054929091019160ff8516908110610463576104636116f4565b60009182526020918290206040805160e0810182526006939093029091016001810180548452600282015494840194909452600381015461ffff8116928401929092526201000082046001600160401b03166060840152600160501b9091046001600160a01b03166080830152600401805491929160a0840191906104e7906116ba565b80601f0160208091040260200160405190810160405280929190818152602001828054610513906116ba565b80156105605780601f1061053557610100808354040283529160200191610560565b820191906000526020600020905b81548152906001019060200180831161054357829003601f168201915b50505050508152602001600482018054610579906116ba565b80601f01602080910402602001604051908101604052809291908181526020018280546105a5906116ba565b80156105f25780601f106105c7576101008083540402835291602001916105f2565b820191906000526020600020905b8154815290600101906020018083116105d557829003601f168201915b505050505081525050815250828260ff1681518110610613576106136116f4565b60209081029190910101526001016103f8565b509360009350915050565b6001600160a01b03828116600090815260208190526040902054166106975760405162461bcd60e51b815260206004820152601760248201527615985b1a59185d1bdc88191bd95cdb89dd08195e1a5cdd604a1b60448201526064015b60405180910390fd5b6001600160a01b038216600090815260208190526040812080546001600160a01b031916815560018101828155600282018390556003820180546001600160f01b0319169055909190816106ee6004850182611242565b6106fc600483016000611242565b50506040518381526001600160a01b03851692503391507f4d10bd049775c77bd7f255195afba5088028ecb3c7c277d393ccff7934f2f92c906020015b60405180910390a35050565b6001600160a01b03808216600090815260208190526040902080549091166107a95760405162461bcd60e51b815260206004820152601760248201527615985b1a59185d1bdc88191bd95cdb89dd08195e1a5cdd604a1b604482015260640161068e565b600034116107f95760405162461bcd60e51b815260206004820152601d60248201527f44656c65676174696f6e2076616c7565206e6f742070726f7669646564000000604482015260640161068e565b34816001016000016000828254610810919061170a565b909155505080546040513481526001600160a01b039091169033907fe5541a6b6103d4fa7e021ed54fad39c66f27a76bd13d374cf6240ae6bd0bb72b90602001610739565b606060008263ffffffff16600003610881576001546064111561087c576001549250610881565b606492505b60008363ffffffff166001600160401b038111156108a1576108a16114c0565b6040519080825280602002602001820160405280156108da57816020015b6108c761121a565b8152602001906001900390816108bf5790505b50905060005b8463ffffffff168160ff161015610b5857856001600160a01b031660018260ff1681548110610911576109116116f4565b6000918252602090912060069091020160030154600160501b90046001600160a01b031603610b5057604051806040016040528060018360ff168154811061095b5761095b6116f4565b6000918252602091829020600690910201546001600160a01b0316825260018054929091019160ff8516908110610994576109946116f4565b60009182526020918290206040805160e0810182526006939093029091016001810180548452600282015494840194909452600381015461ffff8116928401929092526201000082046001600160401b03166060840152600160501b9091046001600160a01b03166080830152600401805491929160a084019190610a18906116ba565b80601f0160208091040260200160405190810160405280929190818152602001828054610a44906116ba565b8015610a915780601f10610a6657610100808354040283529160200191610a91565b820191906000526020600020905b815481529060010190602001808311610a7457829003601f168201915b50505050508152602001600482018054610aaa906116ba565b80601f0160208091040260200160405190810160405280929190818152602001828054610ad6906116ba565b8015610b235780601f10610af857610100808354040283529160200191610b23565b820191906000526020600020905b815481529060010190602001808311610b0657829003601f168201915b505050505081525050815250828260ff1681518110610b4457610b446116f4565b60200260200101819052505b6001016108e0565b509150600090505b9250929050565b8651600003610ba85760405162461bcd60e51b815260206004820152600d60248201526c24b73b30b634b210383937b7b360991b604482015260640161068e565b8551600003610bf95760405162461bcd60e51b815260206004820152601b60248201527f565246205075626c6963206b6579206e6f7420706f7276696465640000000000604482015260640161068e565b6001600160a01b038881166000908152602081905260409020541615610c6c5760405162461bcd60e51b815260206004820152602260248201527f44504f533a2056616c696461746f7220616c7265616479207265676973746572604482015261195960f21b606482015260840161068e565b683635c9adc5dea00000341015610cd05760405162461bcd60e51b815260206004820152602260248201527f426173652064656c65676174696f6e2076616c7565206e6f742070726f766964604482015261195960f21b606482015260840161068e565b60006040518060e00160405280348152602001600081526020018761ffff168152602001436001600160401b03168152602001336001600160a01b0316815260200186868080601f016020809104026020016040519081016040528093929190818152602001838380828437600092019190915250505090825250604080516020601f87018190048102820181019092528581529181019190869086908190840183828082843760009201829052509390945250506040805180820182526001600160a01b03808f16808352602080840188815291865285815294849020835181549084166001600160a01b031990911617815590518051600183019081559581015160028301559384015160038201805460608701516080880151909516600160501b02600160501b600160f01b03196001600160401b03909616620100000269ffffffffffffffffffff1990921661ffff9094169390931717939093161790915560a083015195965090948594509092906004840190610e529082611780565b5060c08201516004820190610e679082611780565b5050600180548082018255600091909152845160069091027fb10e2d527612073b26eecdfd717e6a320cf44b4afac2b0732d9fcbe2b7fa0cf6810180546001600160a01b039384166001600160a01b031990911617815560208088015180517fb10e2d527612073b26eecdfd717e6a320cf44b4afac2b0732d9fcbe2b7fa0cf78501908155918101517fb10e2d527612073b26eecdfd717e6a320cf44b4afac2b0732d9fcbe2b7fa0cf885015560408101517fb10e2d527612073b26eecdfd717e6a320cf44b4afac2b0732d9fcbe2b7fa0cf98501805460608401516080850151909816600160501b02600160501b600160f01b03196001600160401b03909916620100000269ffffffffffffffffffff1990921661ffff9094169390931717969096161790945560a08401518897509195509293507fb10e2d527612073b26eecdfd717e6a320cf44b4afac2b0732d9fcbe2b7fa0cfa90910190610fcc9082611780565b5060c08201516004820190610fe19082611780565b50506040516001600160a01b038e1693507fd09501348473474a20c772c79c653e1fd7e8b437e418fe235d277d2c88853251925060009150a250505050505050505050565b600060208181529181526040908190208054825160e0810184526001830180548252600284015495820195909552600383015461ffff8116948201949094526001600160401b03620100008504166060820152600160501b9093046001600160a01b03908116608085015260048301805491909216949293929160a08401916110ae906116ba565b80601f01602080910402602001604051908101604052809291908181526020018280546110da906116ba565b80156111275780601f106110fc57610100808354040283529160200191611127565b820191906000526020600020905b81548152906001019060200180831161110a57829003601f168201915b50505050508152602001600482018054611140906116ba565b80601f016020809104026020016040519081016040528092919081815260200182805461116c906116ba565b80156111b95780601f1061118e576101008083540402835291602001916111b9565b820191906000526020600020905b81548152906001019060200180831161119c57829003601f168201915b505050505081525050905082565b6040518060e001604052806000815260200160008152602001600061ffff16815260200160006001600160401b0316815260200160006001600160a01b0316815260200160608152602001606081525090565b604051806040016040528060006001600160a01b0316815260200161123d6111c7565b905290565b50805461124e906116ba565b6000825580601f1061125e575050565b601f01602090049060005260206000209081019061127c919061127f565b50565b5b808211156112945760008155600101611280565b5090565b80356001600160a01b03811681146112af57600080fd5b919050565b6000602082840312156112c657600080fd5b6112cf82611298565b9392505050565b6000815180845260005b818110156112fc576020818501810151868301820152016112e0565b506000602082860101526020601f19601f83011685010191505092915050565b805182526020810151602083015261ffff60408201511660408301526001600160401b03606082015116606083015260018060a01b036080820151166080830152600060a082015160e060a085015261137860e08501826112d6565b905060c083015184820360c086015261139182826112d6565b95945050505050565b6020815260006112cf602083018461131c565b803563ffffffff811681146112af57600080fd5b6000602082840312156113d357600080fd5b6112cf826113ad565b6000604080830181845280865180835260608601915060608160051b8701019250602080890160005b8381101561144d57888603605f19018552815180516001600160a01b0316875283015183870188905261143a8888018261131c565b9650509382019390820190600101611405565b5050961515959096019490945295945050505050565b6000806040838503121561147657600080fd5b61147f83611298565b946020939093013593505050565b600080604083850312156114a057600080fd5b6114a983611298565b91506114b7602084016113ad565b90509250929050565b634e487b7160e01b600052604160045260246000fd5b600082601f8301126114e757600080fd5b81356001600160401b0380821115611501576115016114c0565b604051601f8301601f19908116603f01168101908282118183101715611529576115296114c0565b8160405283815286602085880101111561154257600080fd5b836020870160208301376000602085830101528094505050505092915050565b803561ffff811681146112af57600080fd5b60008083601f84011261158657600080fd5b5081356001600160401b0381111561159d57600080fd5b602083019150836020828501011115610b6057600080fd5b60008060008060008060008060c0898b0312156115d157600080fd5b6115da89611298565b975060208901356001600160401b03808211156115f657600080fd5b6116028c838d016114d6565b985060408b013591508082111561161857600080fd5b6116248c838d016114d6565b975061163260608c01611562565b965060808b013591508082111561164857600080fd5b6116548c838d01611574565b909650945060a08b013591508082111561166d57600080fd5b5061167a8b828c01611574565b999c989b5096995094979396929594505050565b6001600160a01b03831681526040602082018190526000906116b29083018461131c565b949350505050565b600181811c908216806116ce57607f821691505b6020821081036116ee57634e487b7160e01b600052602260045260246000fd5b50919050565b634e487b7160e01b600052603260045260246000fd5b8082018082111561172b57634e487b7160e01b600052601160045260246000fd5b92915050565b601f82111561177b57600081815260208120601f850160051c810160208610156117585750805b601f850160051c820191505b8181101561177757828155600101611764565b5050505b505050565b81516001600160401b03811115611799576117996114c0565b6117ad816117a784546116ba565b84611731565b602080601f8311600181146117e257600084156117ca5750858301515b600019600386901b1c1916600185901b178555611777565b600085815260208120601f198616915b82811015611811578886015182559484019460019091019084016117f2565b508582101561182f5787850151600019600388901b60f8161c191681555b5050505050600190811b0190555056fea2646970667358221220ca815f5309570931d7151fbd272d27159decee215204f4b2412f16a01f9b4aa364736f6c63430008110033",
    "linkReferences": {}
  },
  "methodIdentifiers": {
    "delegate(address)": "5c19a95c",
    "getValidator(address)": "1904bb2e",
    "getValidators(uint32)": "19d8024f",
    "getValidatorsFor(address,uint32)": "724ac6b0",
    "isValidatorRegistered(address)": "d04a68c7",
    "registerValidator(address,bytes,bytes,uint16,string,string)": "d6fdc127",
    "undelegate(address,uint256)": "4d99dd16",
    "validators(address)": "fa52c7d8"
  },
  "id": 9
}