{
  "abi": [
    {
      "inputs": [
        {
          "internalType": "address",
          "name": "dataFeed",
          "type": "address"
        }
      ],
      "stateMutability": "nonpayable",
      "type": "constructor"
    },
    {
      "anonymous": false,
      "inputs": [
        {
          "indexed": true,
          "internalType": "address",
          "name": "node",
          "type": "address"
        },
        {
          "indexed": false,
          "internalType": "uint16",
          "name": "apy",
          "type": "uint16"
        },
        {
          "indexed": false,
          "internalType": "uint256",
          "name": "pbftCount",
          "type": "uint256"
        }
      ],
      "name": "NodeDataUpdated",
      "type": "event"
    },
    {
      "inputs": [],
      "name": "getDataFeedAddress",
      "outputs": [
        {
          "internalType": "address",
          "name": "",
          "type": "address"
        }
      ],
      "stateMutability": "view",
      "type": "function"
    },
    {
      "inputs": [],
      "name": "getNodeCount",
      "outputs": [
        {
          "internalType": "uint256",
          "name": "",
          "type": "uint256"
        }
      ],
      "stateMutability": "view",
      "type": "function"
    },
    {
      "inputs": [
        {
          "internalType": "address",
          "name": "node",
          "type": "address"
        }
      ],
      "name": "getNodeData",
      "outputs": [
        {
          "components": [
            {
              "internalType": "address",
              "name": "account",
              "type": "address"
            },
            {
              "internalType": "uint16",
              "name": "rank",
              "type": "uint16"
            },
            {
              "internalType": "uint16",
              "name": "apy",
              "type": "uint16"
            },
            {
              "internalType": "uint64",
              "name": "fromBlock",
              "type": "uint64"
            },
            {
              "internalType": "uint64",
              "name": "toBlock",
              "type": "uint64"
            },
            {
              "internalType": "uint256",
              "name": "pbftCount",
              "type": "uint256"
            }
          ],
          "internalType": "struct IApyOracle.NodeData",
          "name": "",
          "type": "tuple"
        }
      ],
      "stateMutability": "view",
      "type": "function"
    },
    {
      "inputs": [],
      "name": "getNodesList",
      "outputs": [
        {
          "internalType": "address[]",
          "name": "",
          "type": "address[]"
        }
      ],
      "stateMutability": "view",
      "type": "function"
    },
    {
      "inputs": [],
      "name": "nodeCount",
      "outputs": [
        {
          "internalType": "uint256",
          "name": "",
          "type": "uint256"
        }
      ],
      "stateMutability": "view",
      "type": "function"
    },
    {
      "inputs": [
        {
          "internalType": "address",
          "name": "",
          "type": "address"
        }
      ],
      "name": "nodes",
      "outputs": [
        {
          "internalType": "address",
          "name": "account",
          "type": "address"
        },
        {
          "internalType": "uint16",
          "name": "rank",
          "type": "uint16"
        },
        {
          "internalType": "uint16",
          "name": "apy",
          "type": "uint16"
        },
        {
          "internalType": "uint64",
          "name": "fromBlock",
          "type": "uint64"
        },
        {
          "internalType": "uint64",
          "name": "toBlock",
          "type": "uint64"
        },
        {
          "internalType": "uint256",
          "name": "pbftCount",
          "type": "uint256"
        }
      ],
      "stateMutability": "view",
      "type": "function"
    },
    {
      "inputs": [
        {
          "internalType": "uint256",
          "name": "",
          "type": "uint256"
        }
      ],
      "name": "nodesList",
      "outputs": [
        {
          "internalType": "address",
          "name": "",
          "type": "address"
        }
      ],
      "stateMutability": "view",
      "type": "function"
    },
    {
      "inputs": [
        {
          "internalType": "uint256",
          "name": "count",
          "type": "uint256"
        }
      ],
      "name": "updateNodeCount",
      "outputs": [],
      "stateMutability": "nonpayable",
      "type": "function"
    },
    {
      "inputs": [
        {
          "internalType": "address",
          "name": "node",
          "type": "address"
        },
        {
          "components": [
            {
              "internalType": "address",
              "name": "account",
              "type": "address"
            },
            {
              "internalType": "uint16",
              "name": "rank",
              "type": "uint16"
            },
            {
              "internalType": "uint16",
              "name": "apy",
              "type": "uint16"
            },
            {
              "internalType": "uint64",
              "name": "fromBlock",
              "type": "uint64"
            },
            {
              "internalType": "uint64",
              "name": "toBlock",
              "type": "uint64"
            },
            {
              "internalType": "uint256",
              "name": "pbftCount",
              "type": "uint256"
            }
          ],
          "internalType": "struct IApyOracle.NodeData",
          "name": "data",
          "type": "tuple"
        }
      ],
      "name": "updateNodeData",
      "outputs": [],
      "stateMutability": "nonpayable",
      "type": "function"
    }
  ],
  "bytecode": {
    "object": "0x60a060405234801561001057600080fd5b506040516109b83803806109b883398101604081905261002f91610040565b6001600160a01b0316608052610070565b60006020828403121561005257600080fd5b81516001600160a01b038116811461006957600080fd5b9392505050565b60805161091f610099600039600081816102f4015281816103c201526106a1015261091f6000f3fe608060405234801561001057600080fd5b50600436106100935760003560e01c80636da49b83116100665780636da49b83146102a957806376eb6d65146102b25780638ee06535146102dd578063a50d1850146102f2578063fe329fd91461031857600080fd5b80630c1b56a114610098578063189a5a17146100b657806338fc10901461016c57806339bf397e14610297575b600080fd5b6100a061032b565b6040516100ad91906106e3565b60405180910390f35b6101206100c436600461074c565b60026020819052600091825260409091208054600182015491909201546001600160a01b0383169261ffff600160a01b8204811693600160b01b83049091169267ffffffffffffffff600160c01b909304831692919091169086565b604080516001600160a01b0397909716875261ffff9586166020880152939094169285019290925267ffffffffffffffff908116606085015216608083015260a082015260c0016100ad565b61022c61017a36600461074c565b6040805160c081018252600080825260208201819052918101829052606081018290526080810182905260a0810191909152506001600160a01b03908116600090815260026020818152604092839020835160c0810185528154958616815261ffff600160a01b8704811693820193909352600160b01b86049092169382019390935267ffffffffffffffff600160c01b9094048416606082015260018301549093166080840152015460a082015290565b6040805182516001600160a01b0316815260208084015161ffff9081169183019190915283830151169181019190915260608083015167ffffffffffffffff908116918301919091526080808401519091169082015260a0918201519181019190915260c0016100ad565b6000545b6040519081526020016100ad565b61029b60005481565b6102c56102c036600461076e565b61038d565b6040516001600160a01b0390911681526020016100ad565b6102f06102eb3660046107b1565b6103b7565b005b7f00000000000000000000000000000000000000000000000000000000000000006102c5565b6102f061032636600461076e565b610696565b6060600180548060200260200160405190810160405280929190818152602001828054801561038357602002820191906000526020600020905b81546001600160a01b03168152600190910190602001808311610365575b5050505050905090565b6001818154811061039d57600080fd5b6000918252602090912001546001600160a01b0316905081565b336001600160a01b037f000000000000000000000000000000000000000000000000000000000000000016146104085760405162461bcd60e51b81526004016103ff9061087c565b60405180910390fd5b60608101516001600160a01b03831660009081526002602052604090205467ffffffffffffffff918216600160c01b909104909116106104b05760405162461bcd60e51b815260206004820152603a60248201527f4170794f7261636c653a2066726f6d426c6f636b206d7573742062652067726560448201527f61746572207468616e207468652070726576696f7573206f6e6500000000000060648201526084016103ff565b806080015167ffffffffffffffff16816060015167ffffffffffffffff16106105325760405162461bcd60e51b815260206004820152602e60248201527f4170794f7261636c653a2066726f6d426c6f636b206d757374206265206c657360448201526d73207468616e20746f426c6f636b60901b60648201526084016103ff565b6001600160a01b03828116600090815260026020526040902054166105b057600080549080610560836108c2565b90915550506001805480820182556000919091527fb10e2d527612073b26eecdfd717e6a320cf44b4afac2b0732d9fcbe2b7fa0cf60180546001600160a01b0319166001600160a01b0384161790555b6001600160a01b0382811660008181526002602081815260409283902086518154888401518987015160608b0151939099166001600160b01b031990921691909117600160a01b61ffff92831602176001600160b01b0316600160b01b919098169081026001600160c01b031697909717600160c01b67ffffffffffffffff92831602178255608088015160018301805467ffffffffffffffff19169190921617905560a08701519201829055825194855284015290917ff39bff1d19208897d6a4b343f9307b7c7d2df66be3d167cea7aa23e73a1f8896910160405180910390a25050565b336001600160a01b037f000000000000000000000000000000000000000000000000000000000000000016146106de5760405162461bcd60e51b81526004016103ff9061087c565b600055565b6020808252825182820181905260009190848201906040850190845b818110156107245783516001600160a01b0316835292840192918401916001016106ff565b50909695505050505050565b80356001600160a01b038116811461074757600080fd5b919050565b60006020828403121561075e57600080fd5b61076782610730565b9392505050565b60006020828403121561078057600080fd5b5035919050565b803561ffff8116811461074757600080fd5b803567ffffffffffffffff8116811461074757600080fd5b60008082840360e08112156107c557600080fd5b6107ce84610730565b925060c0601f19820112156107e257600080fd5b5060405160c0810181811067ffffffffffffffff8211171561081457634e487b7160e01b600052604160045260246000fd5b60405261082360208501610730565b815261083160408501610787565b602082015261084260608501610787565b604082015261085360808501610799565b606082015261086460a08501610799565b608082015260c0939093013560a08401525092909150565b60208082526026908201527f4170794f7261636c653a2063616c6c6572206973206e6f74207468652064617460408201526518481999595960d21b606082015260800190565b6000600182016108e257634e487b7160e01b600052601160045260246000fd5b506001019056fea26469706673582212207bf8e222d9f7ecb8d9eeda18ffce37f73970fd8f2b0e1fba09675f2ec2cd8ac564736f6c63430008110033",
    "linkReferences": {}
  },
  "methodIdentifiers": {
    "getDataFeedAddress()": "a50d1850",
    "getNodeCount()": "39bf397e",
    "getNodeData(address)": "38fc1090",
    "getNodesList()": "0c1b56a1",
    "nodeCount()": "6da49b83",
    "nodes(address)": "189a5a17",
    "nodesList(uint256)": "76eb6d65",
    "updateNodeCount(uint256)": "fe329fd9",
    "updateNodeData(address,(address,uint16,uint16,uint64,uint64,uint256))": "8ee06535"
  },
  "id": 0
}