{
  "abi": [
    {
      "inputs": [
        {
          "internalType": "address",
          "name": "_sttaraToken",
          "type": "address"
        },
        {
          "internalType": "address",
          "name": "_dposContract",
          "type": "address"
        },
        {
          "internalType": "address",
          "name": "_apyOracle",
          "type": "address"
        },
        {
          "internalType": "address",
          "name": "_continuityOracle",
          "type": "address"
        }
      ],
      "stateMutability": "nonpayable",
      "type": "constructor"
    },
    {
      "inputs": [
        {
          "internalType": "uint256",
          "name": "amount",
          "type": "uint256"
        },
        {
          "internalType": "uint256",
          "name": "minAmount",
          "type": "uint256"
        }
      ],
      "name": "StakeAmountTooLow",
      "type": "error"
    },
    {
      "inputs": [
        {
          "internalType": "uint256",
          "name": "sentAmount",
          "type": "uint256"
        },
        {
          "internalType": "uint256",
          "name": "targetAmount",
          "type": "uint256"
        }
      ],
      "name": "StakeValueTooLow",
      "type": "error"
    },
    {
      "anonymous": false,
      "inputs": [
        {
          "indexed": true,
          "internalType": "address",
          "name": "previousOwner",
          "type": "address"
        },
        {
          "indexed": true,
          "internalType": "address",
          "name": "newOwner",
          "type": "address"
        }
      ],
      "name": "OwnershipTransferred",
      "type": "event"
    },
    {
      "anonymous": false,
      "inputs": [
        {
          "indexed": true,
          "internalType": "address",
          "name": "user",
          "type": "address"
        },
        {
          "indexed": false,
          "internalType": "uint256",
          "name": "amount",
          "type": "uint256"
        }
      ],
      "name": "Staked",
      "type": "event"
    },
    {
      "inputs": [],
      "name": "apyOracle",
      "outputs": [
        {
          "internalType": "contract IApyOracle",
          "name": "",
          "type": "address"
        }
      ],
      "stateMutability": "view",
      "type": "function"
    },
    {
      "inputs": [],
      "name": "continuityOracle",
      "outputs": [
        {
          "internalType": "contract INodeContinuityOracle",
          "name": "",
          "type": "address"
        }
      ],
      "stateMutability": "view",
      "type": "function"
    },
    {
      "inputs": [],
      "name": "dposContract",
      "outputs": [
        {
          "internalType": "contract DposInterface",
          "name": "",
          "type": "address"
        }
      ],
      "stateMutability": "view",
      "type": "function"
    },
    {
      "inputs": [],
      "name": "epochDuration",
      "outputs": [
        {
          "internalType": "uint256",
          "name": "",
          "type": "uint256"
        }
      ],
      "stateMutability": "view",
      "type": "function"
    },
    {
      "inputs": [],
      "name": "getEpoch",
      "outputs": [
        {
          "internalType": "uint256",
          "name": "epoch",
          "type": "uint256"
        }
      ],
      "stateMutability": "view",
      "type": "function"
    },
    {
      "inputs": [
        {
          "internalType": "address",
          "name": "",
          "type": "address"
        },
        {
          "internalType": "uint256",
          "name": "",
          "type": "uint256"
        }
      ],
      "name": "individualDelegations",
      "outputs": [
        {
          "internalType": "address",
          "name": "user",
          "type": "address"
        },
        {
          "internalType": "uint256",
          "name": "amount",
          "type": "uint256"
        },
        {
          "internalType": "uint256",
          "name": "timestamp",
          "type": "uint256"
        }
      ],
      "stateMutability": "view",
      "type": "function"
    },
    {
      "inputs": [],
      "name": "maxValidatorStakeCapacity",
      "outputs": [
        {
          "internalType": "uint256",
          "name": "",
          "type": "uint256"
        }
      ],
      "stateMutability": "view",
      "type": "function"
    },
    {
      "inputs": [],
      "name": "minStakeAmount",
      "outputs": [
        {
          "internalType": "uint256",
          "name": "",
          "type": "uint256"
        }
      ],
      "stateMutability": "view",
      "type": "function"
    },
    {
      "inputs": [],
      "name": "owner",
      "outputs": [
        {
          "internalType": "address",
          "name": "",
          "type": "address"
        }
      ],
      "stateMutability": "view",
      "type": "function"
    },
    {
      "inputs": [],
      "name": "renounceOwnership",
      "outputs": [],
      "stateMutability": "nonpayable",
      "type": "function"
    },
    {
      "inputs": [
        {
          "internalType": "uint256",
          "name": "_epochDuration",
          "type": "uint256"
        }
      ],
      "name": "setEpochDuration",
      "outputs": [],
      "stateMutability": "nonpayable",
      "type": "function"
    },
    {
      "inputs": [
        {
          "internalType": "uint256",
          "name": "_maxValidatorStakeCapacity",
          "type": "uint256"
        }
      ],
      "name": "setMaxValdiatorStakeCapacity",
      "outputs": [],
      "stateMutability": "nonpayable",
      "type": "function"
    },
    {
      "inputs": [
        {
          "internalType": "uint256",
          "name": "_minStakeAmount",
          "type": "uint256"
        }
      ],
      "name": "setMinStakeAmount",
      "outputs": [],
      "stateMutability": "nonpayable",
      "type": "function"
    },
    {
      "inputs": [],
      "name": "stTaraToken",
      "outputs": [
        {
          "internalType": "contract IstTara",
          "name": "",
          "type": "address"
        }
      ],
      "stateMutability": "view",
      "type": "function"
    },
    {
      "inputs": [
        {
          "internalType": "uint256",
          "name": "amount",
          "type": "uint256"
        }
      ],
      "name": "stake",
      "outputs": [],
      "stateMutability": "payable",
      "type": "function"
    },
    {
      "inputs": [
        {
          "internalType": "address",
          "name": "",
          "type": "address"
        }
      ],
      "name": "stakedAmounts",
      "outputs": [
        {
          "internalType": "uint256",
          "name": "",
          "type": "uint256"
        }
      ],
      "stateMutability": "view",
      "type": "function"
    },
    {
      "inputs": [
        {
          "internalType": "address",
          "name": "",
          "type": "address"
        },
        {
          "internalType": "address",
          "name": "",
          "type": "address"
        }
      ],
      "name": "stakedAmountsByValidator",
      "outputs": [
        {
          "internalType": "uint256",
          "name": "",
          "type": "uint256"
        }
      ],
      "stateMutability": "view",
      "type": "function"
    },
    {
      "inputs": [],
      "name": "startTimestamp",
      "outputs": [
        {
          "internalType": "uint256",
          "name": "",
          "type": "uint256"
        }
      ],
      "stateMutability": "view",
      "type": "function"
    },
    {
      "inputs": [
        {
          "internalType": "address",
          "name": "newOwner",
          "type": "address"
        }
      ],
      "name": "transferOwnership",
      "outputs": [],
      "stateMutability": "nonpayable",
      "type": "function"
    },
    {
      "inputs": [
        {
          "internalType": "address",
          "name": "",
          "type": "address"
        },
        {
          "internalType": "uint256",
          "name": "",
          "type": "uint256"
        }
      ],
      "name": "validatorDelegations",
      "outputs": [
        {
          "internalType": "address",
          "name": "validator",
          "type": "address"
        },
        {
          "internalType": "uint256",
          "name": "amount",
          "type": "uint256"
        },
        {
          "internalType": "uint256",
          "name": "lastClaimedTimestamp",
          "type": "uint256"
        }
      ],
      "stateMutability": "view",
      "type": "function"
    }
  ],
  "bytecode": {
    "object": "0x608060405262093a806002556a422ca8b0a00a4250000000600355683635c9adc5dea000006004553480156200003457600080fd5b506040516200120b3803806200120b833981016040819052620000579162000127565b6200006233620000ba565b600580546001600160a01b039586166001600160a01b03199182161790915560068054948616948216949094179093556007805492851692841692909217909155600880549190931691161790554260015562000184565b600080546001600160a01b038381166001600160a01b0319831681178455604051919092169283917f8be0079c531659141344cd1fd0a4f28419497f9722a3daafe3b4186f6b6457e09190a35050565b80516001600160a01b03811681146200012257600080fd5b919050565b600080600080608085870312156200013e57600080fd5b62000149856200010a565b935062000159602086016200010a565b925062000169604086016200010a565b915062000179606086016200010a565b905092959194509250565b61107780620001946000396000f3fe60806040526004361061011f5760003560e01c806389a89d88116100a0578063e6fd48bc11610064578063e6fd48bc1461032a578063eb4af04514610340578063f188768414610360578063f2fde38b14610376578063fb5113661461039657600080fd5b806389a89d88146102745780638da5cb5b146102b9578063a694fc3a146102d7578063e1fb9ae2146102ea578063e539a9881461030a57600080fd5b806330024dfe116100e757806330024dfe146101f45780634ff0876a14610214578063627ed6361461022a578063715018a61461024a578063757991a81461025f57600080fd5b8063021b7a81146101245780630cea1a1a1461016157806310c1c103146101815780632a8cf87f146101bc5780632b605676146101d2575b600080fd5b34801561013057600080fd5b50600554610144906001600160a01b031681565b6040516001600160a01b0390911681526020015b60405180910390f35b34801561016d57600080fd5b50600854610144906001600160a01b031681565b34801561018d57600080fd5b506101ae61019c366004610b9d565b60096020526000908152604090205481565b604051908152602001610158565b3480156101c857600080fd5b506101ae60035481565b3480156101de57600080fd5b506101f26101ed366004610bc1565b6103ce565b005b34801561020057600080fd5b506101f261020f366004610bc1565b6103db565b34801561022057600080fd5b506101ae60025481565b34801561023657600080fd5b50600754610144906001600160a01b031681565b34801561025657600080fd5b506101f26103e8565b34801561026b57600080fd5b506101ae6103fc565b34801561028057600080fd5b5061029461028f366004610bda565b610429565b604080516001600160a01b039094168452602084019290925290820152606001610158565b3480156102c557600080fd5b506000546001600160a01b0316610144565b6101f26102e5366004610bc1565b610475565b3480156102f657600080fd5b50600654610144906001600160a01b031681565b34801561031657600080fd5b50610294610325366004610bda565b6105e2565b34801561033657600080fd5b506101ae60015481565b34801561034c57600080fd5b506101f261035b366004610bc1565b6105fe565b34801561036c57600080fd5b506101ae60045481565b34801561038257600080fd5b506101f2610391366004610b9d565b61060b565b3480156103a257600080fd5b506101ae6103b1366004610c06565b600a60209081526000928352604080842090915290825290205481565b6103d6610684565b600355565b6103e3610684565b600255565b6103f0610684565b6103fa60006106de565b565b60006002546001544261040f9190610c55565b6104199190610c6e565b610424906001610c90565b905090565b600c602052816000526040600020818154811061044557600080fd5b60009182526020909120600390910201805460018201546002909201546001600160a01b03909116935090915083565b6004548110156104a85760048054604051638ab85ce760e01b815291820183905260248201526044015b60405180910390fd5b803410156104d25760405163d8ce37f560e01b81523460048201526024810182905260440161049f565b60006104dd8261072e565b9050801561052057604051339082156108fc029083906000818181858888f19350505050158015610512573d6000803e3d6000fd5b5061051d8183610c55565b91505b6005546040516340c10f1960e01b8152336004820152602481018490526001600160a01b03909116906340c10f1990604401600060405180830381600087803b15801561056c57600080fd5b505af1158015610580573d6000803e3d6000fd5b505033600090815260096020526040812080548694509092506105a4908490610c90565b909155505060405182815233907f9e71bc8eea02a63969f509818f2dafb9254532904319f9dbda79b67bd34a5f3d9060200160405180910390a25050565b600b602052816000526040600020818154811061044557600080fd5b610606610684565b600455565b610613610684565b6001600160a01b0381166106785760405162461bcd60e51b815260206004820152602660248201527f4f776e61626c653a206e6577206f776e657220697320746865207a65726f206160448201526564647265737360d01b606482015260840161049f565b610681816106de565b50565b6000546001600160a01b031633146103fa5760405162461bcd60e51b815260206004820181905260248201527f4f776e61626c653a2063616c6c6572206973206e6f7420746865206f776e6572604482015260640161049f565b600080546001600160a01b038381166001600160a01b0319831681178455604051919092169283917f8be0079c531659141344cd1fd0a4f28419497f9722a3daafe3b4186f6b6457e09190a35050565b600080600760009054906101000a90046001600160a01b03166001600160a01b03166339bf397e6040518163ffffffff1660e01b8152600401602060405180830381865afa158015610784573d6000803e3d6000fd5b505050506040513d601f19601f820116820180604052508101906107a89190610ca3565b905060008167ffffffffffffffff8111156107c5576107c5610cbc565b60405190808252806020026020018201604052801561082557816020015b6040805160c08101825260008082526020808301829052928201819052606082018190526080820181905260a082015282526000199092019101816107e35790505b5090506000600760009054906101000a90046001600160a01b03166001600160a01b0316630c1b56a16040518163ffffffff1660e01b8152600401600060405180830381865afa15801561087d573d6000803e3d6000fd5b505050506040513d6000823e601f3d908101601f191682016040526108a59190810190610d3c565b905060005b83811015610b7e5760075482516001600160a01b03909116906338fc1090908490849081106108db576108db610dee565b60200260200101516040518263ffffffff1660e01b815260040161090e91906001600160a01b0391909116815260200190565b60c060405180830381865afa15801561092b573d6000803e3d6000fd5b505050506040513d601f19601f8201168201806040525081019061094f9190610e2e565b83828151811061096157610961610dee565b602090810291909101015260065483516000916001600160a01b031690631904bb2e9086908590811061099657610996610dee565b6020908102919091010151516040516001600160e01b031960e084901b1681526001600160a01b039091166004820152602401600060405180830381865afa1580156109e6573d6000803e3d6000fd5b505050506040513d6000823e601f3d908101601f19168201604052610a0e9190810190610f50565b905060008160000151600354610a249190610c55565b9050808811610acb5760065485516001600160a01b0390911690635c19a95c908a90889087908110610a5857610a58610dee565b6020908102919091010151516040516001600160e01b031960e085901b1681526001600160a01b0390911660048201526024016000604051808303818588803b158015610aa457600080fd5b505af1158015610ab8573d6000803e3d6000fd5b5060009c9b505050505050505050505050565b60065485516001600160a01b0390911690635c19a95c908390889087908110610af657610af6610dee565b6020908102919091010151516040516001600160e01b031960e085901b1681526001600160a01b0390911660048201526024016000604051808303818588803b158015610b4257600080fd5b505af1158015610b56573d6000803e3d6000fd5b50505050508088610b679190610c55565b975050508080610b7690611028565b9150506108aa565b5093949350505050565b6001600160a01b038116811461068157600080fd5b600060208284031215610baf57600080fd5b8135610bba81610b88565b9392505050565b600060208284031215610bd357600080fd5b5035919050565b60008060408385031215610bed57600080fd5b8235610bf881610b88565b946020939093013593505050565b60008060408385031215610c1957600080fd5b8235610c2481610b88565b91506020830135610c3481610b88565b809150509250929050565b634e487b7160e01b600052601160045260246000fd5b81810381811115610c6857610c68610c3f565b92915050565b600082610c8b57634e487b7160e01b600052601260045260246000fd5b500490565b80820180821115610c6857610c68610c3f565b600060208284031215610cb557600080fd5b5051919050565b634e487b7160e01b600052604160045260246000fd5b60405160e0810167ffffffffffffffff81118282101715610cf557610cf5610cbc565b60405290565b604051601f8201601f1916810167ffffffffffffffff81118282101715610d2457610d24610cbc565b604052919050565b8051610d3781610b88565b919050565b60006020808385031215610d4f57600080fd5b825167ffffffffffffffff80821115610d6757600080fd5b818501915085601f830112610d7b57600080fd5b815181811115610d8d57610d8d610cbc565b8060051b9150610d9e848301610cfb565b8181529183018401918481019088841115610db857600080fd5b938501935b83851015610de25784519250610dd283610b88565b8282529385019390850190610dbd565b98975050505050505050565b634e487b7160e01b600052603260045260246000fd5b805161ffff81168114610d3757600080fd5b805167ffffffffffffffff81168114610d3757600080fd5b600060c08284031215610e4057600080fd5b60405160c0810181811067ffffffffffffffff82111715610e6357610e63610cbc565b6040528251610e7181610b88565b8152610e7f60208401610e04565b6020820152610e9060408401610e04565b6040820152610ea160608401610e16565b6060820152610eb260808401610e16565b608082015260a083015160a08201528091505092915050565b600082601f830112610edc57600080fd5b815167ffffffffffffffff811115610ef657610ef6610cbc565b6020610f0a601f8301601f19168201610cfb565b8281528582848701011115610f1e57600080fd5b60005b83811015610f3c578581018301518282018401528201610f21565b506000928101909101919091529392505050565b600060208284031215610f6257600080fd5b815167ffffffffffffffff80821115610f7a57600080fd5b9083019060e08286031215610f8e57600080fd5b610f96610cd2565b8251815260208301516020820152610fb060408401610e04565b6040820152610fc160608401610e16565b6060820152610fd260808401610d2c565b608082015260a083015182811115610fe957600080fd5b610ff587828601610ecb565b60a08301525060c08301518281111561100d57600080fd5b61101987828601610ecb565b60c08301525095945050505050565b60006001820161103a5761103a610c3f565b506001019056fea264697066735822122073949b8838bf3c9465debd49c8da8e607e357a5209b0756c3aa8c403e444d34364736f6c63430008110033",
    "linkReferences": {}
  },
  "methodIdentifiers": {
    "apyOracle()": "627ed636",
    "continuityOracle()": "0cea1a1a",
    "dposContract()": "e1fb9ae2",
    "epochDuration()": "4ff0876a",
    "getEpoch()": "757991a8",
    "individualDelegations(address,uint256)": "e539a988",
    "maxValidatorStakeCapacity()": "2a8cf87f",
    "minStakeAmount()": "f1887684",
    "owner()": "8da5cb5b",
    "renounceOwnership()": "715018a6",
    "setEpochDuration(uint256)": "30024dfe",
    "setMaxValdiatorStakeCapacity(uint256)": "2b605676",
    "setMinStakeAmount(uint256)": "eb4af045",
    "stTaraToken()": "021b7a81",
    "stake(uint256)": "a694fc3a",
    "stakedAmounts(address)": "10c1c103",
    "stakedAmountsByValidator(address,address)": "fb511366",
    "startTimestamp()": "e6fd48bc",
    "transferOwnership(address)": "f2fde38b",
    "validatorDelegations(address,uint256)": "89a89d88"
  },
  "id": 2
}